{
  "contractName": "EIP20",
  "abi": [
    {
      "constant": true,
      "inputs": [],
      "name": "name",
      "outputs": [
        {
          "name": "",
          "type": "string"
        }
      ],
      "payable": false,
      "stateMutability": "view",
      "type": "function"
    },
    {
      "constant": true,
      "inputs": [],
      "name": "totalSupply",
      "outputs": [
        {
          "name": "",
          "type": "uint256"
        }
      ],
      "payable": false,
      "stateMutability": "view",
      "type": "function"
    },
    {
      "constant": true,
      "inputs": [
        {
          "name": "",
          "type": "address"
        }
      ],
      "name": "balances",
      "outputs": [
        {
          "name": "",
          "type": "uint256"
        }
      ],
      "payable": false,
      "stateMutability": "view",
      "type": "function"
    },
    {
      "constant": true,
      "inputs": [],
      "name": "decimals",
      "outputs": [
        {
          "name": "",
          "type": "uint8"
        }
      ],
      "payable": false,
      "stateMutability": "view",
      "type": "function"
    },
    {
      "constant": true,
      "inputs": [
        {
          "name": "",
          "type": "address"
        },
        {
          "name": "",
          "type": "address"
        }
      ],
      "name": "allowed",
      "outputs": [
        {
          "name": "",
          "type": "uint256"
        }
      ],
      "payable": false,
      "stateMutability": "view",
      "type": "function"
    },
    {
      "constant": true,
      "inputs": [],
      "name": "symbol",
      "outputs": [
        {
          "name": "",
          "type": "string"
        }
      ],
      "payable": false,
      "stateMutability": "view",
      "type": "function"
    },
    {
      "inputs": [
        {
          "name": "_initialAmount",
          "type": "uint256"
        },
        {
          "name": "_tokenName",
          "type": "string"
        },
        {
          "name": "_decimalUnits",
          "type": "uint8"
        },
        {
          "name": "_tokenSymbol",
          "type": "string"
        }
      ],
      "payable": false,
      "stateMutability": "nonpayable",
      "type": "constructor"
    },
    {
      "anonymous": false,
      "inputs": [
        {
          "indexed": true,
          "name": "_from",
          "type": "address"
        },
        {
          "indexed": true,
          "name": "_to",
          "type": "address"
        },
        {
          "indexed": false,
          "name": "_value",
          "type": "uint256"
        }
      ],
      "name": "Transfer",
      "type": "event"
    },
    {
      "anonymous": false,
      "inputs": [
        {
          "indexed": true,
          "name": "_owner",
          "type": "address"
        },
        {
          "indexed": true,
          "name": "_spender",
          "type": "address"
        },
        {
          "indexed": false,
          "name": "_value",
          "type": "uint256"
        }
      ],
      "name": "Approval",
      "type": "event"
    },
    {
      "constant": false,
      "inputs": [
        {
          "name": "_to",
          "type": "address"
        },
        {
          "name": "_value",
          "type": "uint256"
        }
      ],
      "name": "transfer",
      "outputs": [
        {
          "name": "success",
          "type": "bool"
        }
      ],
      "payable": false,
      "stateMutability": "nonpayable",
      "type": "function"
    },
    {
      "constant": false,
      "inputs": [
        {
          "name": "_from",
          "type": "address"
        },
        {
          "name": "_to",
          "type": "address"
        },
        {
          "name": "_value",
          "type": "uint256"
        }
      ],
      "name": "transferFrom",
      "outputs": [
        {
          "name": "success",
          "type": "bool"
        }
      ],
      "payable": false,
      "stateMutability": "nonpayable",
      "type": "function"
    },
    {
      "constant": true,
      "inputs": [
        {
          "name": "_owner",
          "type": "address"
        }
      ],
      "name": "balanceOf",
      "outputs": [
        {
          "name": "balance",
          "type": "uint256"
        }
      ],
      "payable": false,
      "stateMutability": "view",
      "type": "function"
    },
    {
      "constant": false,
      "inputs": [
        {
          "name": "_spender",
          "type": "address"
        },
        {
          "name": "_value",
          "type": "uint256"
        }
      ],
      "name": "approve",
      "outputs": [
        {
          "name": "success",
          "type": "bool"
        }
      ],
      "payable": false,
      "stateMutability": "nonpayable",
      "type": "function"
    },
    {
      "constant": true,
      "inputs": [
        {
          "name": "_owner",
          "type": "address"
        },
        {
          "name": "_spender",
          "type": "address"
        }
      ],
      "name": "allowance",
      "outputs": [
        {
          "name": "remaining",
          "type": "uint256"
        }
      ],
      "payable": false,
      "stateMutability": "view",
      "type": "function"
    }
  ],
  "bytecode": "0x608060405234801561001057600080fd5b5060405161093d38038061093d83398101604090815281516020808401518385015160608601513360009081526001855295862085905594849055908501805193959094919391019161006891600391860190610095565b506004805460ff191660ff8416179055805161008b906005906020840190610095565b5050505050610130565b828054600181600116156101000203166002900490600052602060002090601f016020900481019282601f106100d657805160ff1916838001178555610103565b82800160010185558215610103579182015b828111156101035782518255916020019190600101906100e8565b5061010f929150610113565b5090565b61012d91905b8082111561010f5760008155600101610119565b90565b6107fe8061013f6000396000f3006080604052600436106100ae5763ffffffff7c010000000000000000000000000000000000000000000000000000000060003504166306fdde0381146100b3578063095ea7b31461013d57806318160ddd1461017557806323b872dd1461019c57806327e235e3146101c6578063313ce567146101e75780635c6581651461021257806370a082311461023957806395d89b411461025a578063a9059cbb1461026f578063dd62ed3e14610293575b600080fd5b3480156100bf57600080fd5b506100c86102ba565b6040805160208082528351818301528351919283929083019185019080838360005b838110156101025781810151838201526020016100ea565b50505050905090810190601f16801561012f5780820380516001836020036101000a031916815260200191505b509250505060405180910390f35b34801561014957600080fd5b50610161600160a060020a0360043516602435610348565b604080519115158252519081900360200190f35b34801561018157600080fd5b5061018a6103ea565b60408051918252519081900360200190f35b3480156101a857600080fd5b50610161600160a060020a03600435811690602435166044356103f0565b3480156101d257600080fd5b5061018a600160a060020a036004351661056c565b3480156101f357600080fd5b506101fc61057e565b6040805160ff9092168252519081900360200190f35b34801561021e57600080fd5b5061018a600160a060020a0360043581169060243516610587565b34801561024557600080fd5b5061018a600160a060020a03600435166105a4565b34801561026657600080fd5b506100c86105bf565b34801561027b57600080fd5b50610161600160a060020a036004351660243561061a565b34801561029f57600080fd5b5061018a600160a060020a0360043581169060243516610782565b6003805460408051602060026001851615610100026000190190941693909304601f810184900484028201840190925281815292918301828280156103405780601f1061031557610100808354040283529160200191610340565b820191906000526020600020905b81548152906001019060200180831161032357829003601f168201915b505050505081565b60008115806103785750336000908152600260209081526040808320600160a060020a0387168452909152902054155b151561038357600080fd5b336000818152600260209081526040808320600160a060020a03881680855290835292819020869055805186815290519293927f8c5be1e5ebec7d5bd14f71427d1e84f3dd0314c0f7b2291e5b200ac8c7c3b925929181900390910190a350600192915050565b60005481565b600160a060020a0383166000818152600260209081526040808320338452825280832054938352600190915281205490919083118015906104315750828110155b151561043c57600080fd5b600160a060020a038516600090815260016020526040902054610465908463ffffffff6107ad16565b600160a060020a03808716600090815260016020526040808220939093559086168152205461049a908463ffffffff6107bf16565b600160a060020a03851660009081526001602052604090205560001981101561051657600160a060020a03851660009081526002602090815260408083203384529091529020546104f1908463ffffffff6107ad16565b600160a060020a03861660009081526002602090815260408083203384529091529020555b83600160a060020a031685600160a060020a03167fddf252ad1be2c89b69c2b068fc378daa952ba7f163c4a11628f55a4df523b3ef856040518082815260200191505060405180910390a3506001949350505050565b60016020526000908152604090205481565b60045460ff1681565b600260209081526000928352604080842090915290825290205481565b600160a060020a031660009081526001602052604090205490565b6005805460408051602060026001851615610100026000190190941693909304601f810184900484028201840190925281815292918301828280156103405780601f1061031557610100808354040283529160200191610340565b33600090815260016020526040812054833b90829061063f908563ffffffff6107ad16565b3360009081526001602052604080822092909255600160a060020a03871681522054610671908563ffffffff6107bf16565b600160a060020a0386166000908152600160205260408120919091558211156107375750604080517f3b66d02b0000000000000000000000000000000000000000000000000000000081523360048201526024810185905290518591600160a060020a03831691633b66d02b916044808201926020929091908290030181600087803b15801561070057600080fd5b505af1158015610714573d6000803e3d6000fd5b505050506040513d602081101561072a57600080fd5b5051151561073757600080fd5b604080518581529051600160a060020a0387169133917fddf252ad1be2c89b69c2b068fc378daa952ba7f163c4a11628f55a4df523b3ef9181900360200190a3506001949350505050565b600160a060020a03918216600090815260026020908152604080832093909416825291909152205490565b6000828211156107b957fe5b50900390565b818101828110156107cc57fe5b929150505600a165627a7a72305820e65e263214a3b854cfd83fbf96b10b6ef074338d92a4026cc0f73488be1962430029",
  "source": "/*\nImplements EIP20 token standard: https://github.com/ethereum/EIPs/blob/master/EIPS/eip-20.md\n.*/\n\npragma solidity ^0.4.21;\n\nimport \"./EIP20Interface.sol\";\nimport \"./SafeMath.sol\";\nimport \"./ERC223Receiving.sol\";\n\ncontract EIP20 is EIP20Interface {\n    using SafeMath for uint256;\n    uint256 constant private MAX_UINT256 = 2**256 - 1;\n    mapping (address => uint256) public balances;\n    mapping (address => mapping (address => uint256)) public allowed;\n    /*\n    NOTE:\n    The following variables are OPTIONAL vanities. One does not have to include them.\n    They allow one to customise the token contract & in no way influences the core functionality.\n    Some wallets/interfaces might not even bother to look at this information.\n    */\n    string public name;                   //fancy name: eg Simon Bucks\n    uint8 public decimals;                //How many decimals to show.\n    string public symbol;                 //An identifier: eg SBX\n\n    function EIP20(\n        uint256 _initialAmount,\n        string _tokenName,\n        uint8 _decimalUnits,\n        string _tokenSymbol\n    ) public {\n        balances[msg.sender] = _initialAmount;               // Give the creator all initial tokens\n        totalSupply = _initialAmount;                        // Update total supply\n        name = _tokenName;                                   // Set the name for display purposes\n        decimals = _decimalUnits;                            // Amount of decimals for display purposes\n        symbol = _tokenSymbol;                               // Set the symbol for display purposes\n    }\n\n    function transfer(address _to, uint _value) public returns (bool success) {\n        uint codeLength;\n\n        assembly {\n            // Retrieve the size of the code on target address, this needs assembly .\n            codeLength := extcodesize(_to)\n        }\n\n        balances[msg.sender] = balances[msg.sender].sub(_value);\n        balances[_to] = balances[_to].add(_value);\n        if(codeLength>0) {\n            ERC223ReceivingContract receiver = ERC223ReceivingContract(_to);\n            require(receiver.tokenFallback(msg.sender, _value));\n        }\n        emit Transfer(msg.sender, _to, _value);\n        return true;\n    }\n\n    function transferFrom(address _from, address _to, uint256 _value) public returns (bool success) {\n        uint256 allowance = allowed[_from][msg.sender];\n        require(balances[_from] >= _value && allowance >= _value);\n        balances[_from] = balances[_from].sub(_value);\n        balances[_to] = balances[_to].add(_value);\n        if (allowance < MAX_UINT256) {\n            allowed[_from][msg.sender] = allowed[_from][msg.sender].sub(_value);\n        }\n        emit Transfer(_from, _to, _value); //solhint-disable-line indent, no-unused-vars\n        return true;\n    }\n\n    function balanceOf(address _owner) public view returns (uint256 balance) {\n        return balances[_owner];\n    }\n\n    function approve(address _spender, uint256 _value) public returns (bool success) {\n        require((_value == 0) || (allowed[msg.sender][_spender] == 0));\n        allowed[msg.sender][_spender] = _value;\n        emit Approval(msg.sender, _spender, _value); //solhint-disable-line indent, no-unused-vars\n        return true;\n    }\n\n    function allowance(address _owner, address _spender) public view returns (uint256 remaining) {\n        return allowed[_owner][_spender];\n    }\n}\n",
  "sourcePath": "/Users/ming.hsu/Desktop/TideiSun/IFC/contracts/contracts/EIP20/EIP20.sol",
  "compiler": {
    "name": "solc",
    "version": "0.4.24+commit.e67f0147.Emscripten.clang"
  },
  "schemaVersion": "2.0.1",
  "updatedAt": "2018-08-24T03:28:27.007Z"
}