{
  "contractName": "InfinitechainManager",
  "abi": [
    {
      "constant": true,
      "inputs": [
        {
          "name": "",
          "type": "uint256"
        }
      ],
      "name": "sidechainAddress",
      "outputs": [
        {
          "name": "",
          "type": "address"
        }
      ],
      "payable": false,
      "stateMutability": "view",
      "type": "function"
    },
    {
      "constant": true,
      "inputs": [],
      "name": "owner",
      "outputs": [
        {
          "name": "",
          "type": "address"
        }
      ],
      "payable": false,
      "stateMutability": "view",
      "type": "function"
    },
    {
      "constant": true,
      "inputs": [],
      "name": "sidechainLibAddress",
      "outputs": [
        {
          "name": "",
          "type": "address"
        }
      ],
      "payable": false,
      "stateMutability": "view",
      "type": "function"
    },
    {
      "constant": true,
      "inputs": [],
      "name": "sidechainNumber",
      "outputs": [
        {
          "name": "",
          "type": "uint256"
        }
      ],
      "payable": false,
      "stateMutability": "view",
      "type": "function"
    },
    {
      "inputs": [
        {
          "name": "_sidechainLibAddress",
          "type": "address"
        }
      ],
      "payable": false,
      "stateMutability": "nonpayable",
      "type": "constructor"
    },
    {
      "anonymous": false,
      "inputs": [
        {
          "indexed": false,
          "name": "_sidechainId",
          "type": "uint256"
        },
        {
          "indexed": false,
          "name": "_sidechainAddress",
          "type": "address"
        }
      ],
      "name": "DeploySidechain",
      "type": "event"
    },
    {
      "constant": false,
      "inputs": [
        {
          "name": "_sidechainOwner",
          "type": "address"
        },
        {
          "name": "_assetAddresses",
          "type": "address[]"
        },
        {
          "name": "_instantWithdrawMaximum",
          "type": "uint256"
        }
      ],
      "name": "deploySidechain",
      "outputs": [],
      "payable": false,
      "stateMutability": "nonpayable",
      "type": "function"
    },
    {
      "constant": false,
      "inputs": [
        {
          "name": "_sidechainLibAddress",
          "type": "address"
        }
      ],
      "name": "setSidechainLibAddress",
      "outputs": [],
      "payable": false,
      "stateMutability": "nonpayable",
      "type": "function"
    }
  ],
  "bytecode": "0x608060405234801561001057600080fd5b50604051602080610b40833981016040525160008054600160a060020a03338116600160a060020a03199283161790925560018054929093169116179055610ae38061005d6000396000f3006080604052600436106100775763ffffffff7c01000000000000000000000000000000000000000000000000000000006000350416631fb236af811461007c57806333f6781c146100e35780638da5cb5b14610117578063cff50d3e1461012c578063fca2fe2d14610141578063fdcefff514610162575b600080fd5b34801561008857600080fd5b506040805160206004602480358281013584810280870186019097528086526100e1968435600160a060020a03169636966044959194909101929182918501908490808284375094975050933594506101899350505050565b005b3480156100ef57600080fd5b506100fb6004356102e2565b60408051600160a060020a039092168252519081900360200190f35b34801561012357600080fd5b506100fb6102fd565b34801561013857600080fd5b506100fb61030c565b34801561014d57600080fd5b506100e1600160a060020a036004351661031b565b34801561016e57600080fd5b50610177610365565b60408051918252519081900360200190f35b6000805433600160a060020a039081169116146101a557600080fd5b6001548490600160a060020a031684846101bd61036b565b8085600160a060020a0316600160a060020a0316815260200184600160a060020a0316600160a060020a0316815260200180602001838152602001828103825284818151815260200191508051906020019060200280838360005b83811015610230578181015183820152602001610218565b5050505090500195505050505050604051809103906000f08015801561025a573d6000803e3d6000fd5b5060028054600181018255600090815260036020908152604091829020805473ffffffffffffffffffffffffffffffffffffffff1916600160a060020a038616908117909155925482519081529081019290925280519293507f649244b0a34fa560b9d17b63b4a7fb88304d51f44b4946bbbdb74cdfc09facac92918290030190a150505050565b600360205260009081526040902054600160a060020a031681565b600054600160a060020a031681565b600154600160a060020a031681565b60005433600160a060020a0390811691161461033657600080fd5b6001805473ffffffffffffffffffffffffffffffffffffffff1916600160a060020a0392909216919091179055565b60025481565b60405161073c8061037c833901905600608060405234801561001057600080fd5b5060405161073c38038061073c833981016040908152815160208084015183850151606086015160088054600160a060020a03338116600160a060020a03199283161790925560078054838916908316179055600980549286169290911691909117905560058190556004546000908152938490529483207f67656e69736973207374616765000000000000000000000000000000000000006002919091015592949093920191905b82518110156101105760016003600085848151811015156100d657fe5b602090810291909101810151600160a060020a03168252810191909152604001600020805460ff19169115159190911790556001016100b9565b5050505050610618806101246000396000f3006080604052600436106100b55763ffffffff60e060020a600035041662f817d68114610141578063098bbb62146101815780633b66d02b146101b65780636cdcf150146101da578063770e09fd146101f2578063845ddcb2146102155780638da5cb5b1461024b57806390c8a3a11461027c578063c9a557fb146102a3578063cc6e7a1414610312578063cf73a1bc14610327578063cff50d3e1461033c578063f418eae414610351578063fb3b65bb14610366575b60408051600280825260608083018452926020830190803883395050815191925050600160a060020a03331690829060009081106100ef57fe5b60209081029091010152805134908290600190811061010a57fe5b6020908102909101015261013e7fdcf12aba0000000000000000000000000000000000000000000000000000000082610387565b50005b34801561014d57600080fd5b5061015960043561041e565b6040805194855260208501939093528383019190915215156060830152519081900360800190f35b34801561018d57600080fd5b506101a2600160a060020a0360043516610449565b604080519115158252519081900360200190f35b3480156101c257600080fd5b506101a2600160a060020a036004351660243561045e565b3480156101e657600080fd5b5061015960043561051b565b3480156101fe57600080fd5b50610213600160a060020a0360043516610547565b005b34801561022157600080fd5b5061022d60043561056b565b60408051938452602084019290925282820152519081900360600190f35b34801561025757600080fd5b5061026061058c565b60408051600160a060020a039092168252519081900360200190f35b34801561028857600080fd5b5061029161059b565b60408051918252519081900360200190f35b6040805160206004602480358281013584810280870186019097528086526102139684357fffffffff0000000000000000000000000000000000000000000000000000000016963696604495919490910192918291850190849080828437509497506103879650505050505050565b34801561031e57600080fd5b506102916105a1565b34801561033357600080fd5b506102606105a7565b34801561034857600080fd5b506102606105b6565b34801561035d57600080fd5b506102916105c5565b34801561037257600080fd5b50610213600160a060020a03600435166105cb565b600960009054906101000a9004600160a060020a0316600160a060020a03168260e060020a900460208351846040518463ffffffff1660e060020a02815260040180848152602001838152602001828051906020019060200280838360005b838110156103fe5781810151838201526020016103e6565b505050509050019350505050600060405180830381865af4505050505050565b6001602081905260009182526040909120805491810154600282015460039092015490919060ff1684565b60036020526000908152604090205460ff1681565b600160a060020a03331660009081526003602052604081205460609060ff16151561048857600080fd5b60408051600280825260608201835290916020830190803883395050815191925050600160a060020a03851690829060009081106104c257fe5b6020908102909101015280518390829060019081106104dd57fe5b602090810290910101526105117fdcf12aba0000000000000000000000000000000000000000000000000000000082610387565b5060019392505050565b600260208190526000918252604090912080546001820154928201546003909201549092919060ff1684565b600160a060020a03166000908152600360205260409020805460ff19166001179055565b60006020819052908152604090208054600182015460029092015490919083565b600754600160a060020a031681565b60055481565b60065481565b600854600160a060020a031681565b600954600160a060020a031681565b60045481565b600160a060020a03166000908152600360205260409020805460ff191690555600a165627a7a723058208dc9f847ff2a03a74eb375350bad06754ac73af7e21fdfd7031ffd563091c19b0029a165627a7a72305820882d1133c46f3da544adf74c9aa4473d144698531312821b2f692a47bda87c270029",
  "source": "pragma solidity ^0.4.23;\n\nimport \"./Sidechain.sol\";\n\ncontract InfinitechainManager {\n\taddress public owner;\n\taddress public sidechainLibAddress;\n\tuint256 public sidechainNumber;\n\tmapping (uint256 => address) public sidechainAddress;\n\t// id = 0, for ledger use\n\n\tevent DeploySidechain(uint256 _sidechainId, address _sidechainAddress);\n\n\tmodifier onlyOwner {\n        require(msg.sender == owner);\n        _;\n    }\n\n\tfunction InfinitechainManager(address _sidechainLibAddress) {\n\t\towner = msg.sender;\n\t\tsidechainLibAddress = _sidechainLibAddress;\n\t}\n\n\tfunction deploySidechain(\n\t\taddress _sidechainOwner,\n\t\taddress[] _assetAddresses,\n\t\tuint256 _instantWithdrawMaximum\n\t) \n\t\tonlyOwner \n\t{\n\t\taddress newSidechain = new Sidechain(_sidechainOwner, sidechainLibAddress, _assetAddresses, _instantWithdrawMaximum);\n\t\tsidechainAddress[sidechainNumber++] = newSidechain;\n\t\tDeploySidechain(sidechainNumber, newSidechain);\n\t}\n\n\tfunction setSidechainLibAddress(address _sidechainLibAddress) onlyOwner {\n\t\tsidechainLibAddress = _sidechainLibAddress;\n\t}\n}\n",
  "sourcePath": "/Users/louis.lee/git/infinitechain_contract/gringotts/contracts/InfinitechainManager.sol",
  "compiler": {
    "name": "solc",
    "version": "0.4.23+commit.124ca40d.Emscripten.clang"
  },
  "schemaVersion": "2.0.0",
  "updatedAt": "2018-07-10T06:21:21.485Z"
}