{
  "contractName": "SidechainLib",
  "abi": [
    {
      "constant": true,
      "inputs": [
        {
          "name": "",
          "type": "bytes32"
        }
      ],
      "name": "depositLogs",
      "outputs": [
        {
          "name": "stage",
          "type": "bytes32"
        },
        {
          "name": "client",
          "type": "bytes32"
        },
        {
          "name": "value",
          "type": "bytes32"
        },
        {
          "name": "flag",
          "type": "bool"
        }
      ],
      "payable": false,
      "stateMutability": "view",
      "type": "function"
    },
    {
      "constant": true,
      "inputs": [
        {
          "name": "",
          "type": "address"
        }
      ],
      "name": "assetAddresses",
      "outputs": [
        {
          "name": "",
          "type": "bool"
        }
      ],
      "payable": false,
      "stateMutability": "view",
      "type": "function"
    },
    {
      "constant": true,
      "inputs": [
        {
          "name": "",
          "type": "bytes32"
        }
      ],
      "name": "withdrawalLogs",
      "outputs": [
        {
          "name": "stage",
          "type": "bytes32"
        },
        {
          "name": "client",
          "type": "bytes32"
        },
        {
          "name": "value",
          "type": "bytes32"
        },
        {
          "name": "flag",
          "type": "bool"
        }
      ],
      "payable": false,
      "stateMutability": "view",
      "type": "function"
    },
    {
      "constant": true,
      "inputs": [
        {
          "name": "",
          "type": "uint256"
        }
      ],
      "name": "stages",
      "outputs": [
        {
          "name": "receiptRootHash",
          "type": "bytes32"
        },
        {
          "name": "accountRootHash",
          "type": "bytes32"
        },
        {
          "name": "data",
          "type": "bytes32"
        }
      ],
      "payable": false,
      "stateMutability": "view",
      "type": "function"
    },
    {
      "constant": true,
      "inputs": [],
      "name": "owner",
      "outputs": [
        {
          "name": "",
          "type": "address"
        }
      ],
      "payable": false,
      "stateMutability": "view",
      "type": "function"
    },
    {
      "constant": true,
      "inputs": [],
      "name": "instantWithdrawMaximum",
      "outputs": [
        {
          "name": "",
          "type": "uint256"
        }
      ],
      "payable": false,
      "stateMutability": "view",
      "type": "function"
    },
    {
      "constant": true,
      "inputs": [],
      "name": "depositSequenceNumber",
      "outputs": [
        {
          "name": "",
          "type": "uint256"
        }
      ],
      "payable": false,
      "stateMutability": "view",
      "type": "function"
    },
    {
      "constant": true,
      "inputs": [],
      "name": "stageHeight",
      "outputs": [
        {
          "name": "",
          "type": "uint256"
        }
      ],
      "payable": false,
      "stateMutability": "view",
      "type": "function"
    },
    {
      "anonymous": false,
      "inputs": [
        {
          "indexed": true,
          "name": "_dsn",
          "type": "bytes32"
        },
        {
          "indexed": false,
          "name": "_client",
          "type": "bytes32"
        },
        {
          "indexed": false,
          "name": "_value",
          "type": "bytes32"
        }
      ],
      "name": "ProposeDeposit",
      "type": "event"
    },
    {
      "anonymous": false,
      "inputs": [
        {
          "indexed": true,
          "name": "_type",
          "type": "uint256"
        },
        {
          "indexed": false,
          "name": "_gsn",
          "type": "bytes32"
        },
        {
          "indexed": false,
          "name": "_lightTxHash",
          "type": "bytes32"
        },
        {
          "indexed": false,
          "name": "_fromBalance",
          "type": "bytes32"
        },
        {
          "indexed": false,
          "name": "_toBalance",
          "type": "bytes32"
        },
        {
          "indexed": false,
          "name": "_sigLightTx",
          "type": "bytes32[3]"
        },
        {
          "indexed": false,
          "name": "_sigReceipt",
          "type": "bytes32[3]"
        }
      ],
      "name": "VerifyReceipt",
      "type": "event"
    },
    {
      "anonymous": false,
      "inputs": [
        {
          "indexed": false,
          "name": "_stageHeight",
          "type": "bytes32"
        },
        {
          "indexed": false,
          "name": "_receiptRootHash",
          "type": "bytes32"
        },
        {
          "indexed": false,
          "name": "_accountRootHash",
          "type": "bytes32"
        }
      ],
      "name": "Attach",
      "type": "event"
    },
    {
      "anonymous": false,
      "inputs": [
        {
          "indexed": true,
          "name": "_wsn",
          "type": "bytes32"
        },
        {
          "indexed": false,
          "name": "_client",
          "type": "bytes32"
        },
        {
          "indexed": false,
          "name": "_value",
          "type": "bytes32"
        }
      ],
      "name": "Withdraw",
      "type": "event"
    },
    {
      "constant": true,
      "inputs": [
        {
          "name": "data",
          "type": "bytes32"
        },
        {
          "name": "dataArray",
          "type": "bytes32[]"
        }
      ],
      "name": "inBytes32Array",
      "outputs": [
        {
          "name": "",
          "type": "bool"
        }
      ],
      "payable": false,
      "stateMutability": "view",
      "type": "function"
    },
    {
      "constant": true,
      "inputs": [
        {
          "name": "dataArray",
          "type": "bytes32[]"
        }
      ],
      "name": "hashArray",
      "outputs": [
        {
          "name": "",
          "type": "bytes32"
        }
      ],
      "payable": false,
      "stateMutability": "view",
      "type": "function"
    },
    {
      "constant": true,
      "inputs": [
        {
          "name": "idx",
          "type": "uint256"
        },
        {
          "name": "slice",
          "type": "bytes32[]"
        }
      ],
      "name": "calculateSliceRootHash",
      "outputs": [
        {
          "name": "",
          "type": "bytes32"
        }
      ],
      "payable": false,
      "stateMutability": "view",
      "type": "function"
    },
    {
      "constant": true,
      "inputs": [
        {
          "name": "_a",
          "type": "string"
        },
        {
          "name": "_b",
          "type": "string"
        }
      ],
      "name": "strConcat",
      "outputs": [
        {
          "name": "",
          "type": "string"
        }
      ],
      "payable": false,
      "stateMutability": "view",
      "type": "function"
    },
    {
      "constant": true,
      "inputs": [
        {
          "name": "b32",
          "type": "bytes32"
        }
      ],
      "name": "bytes32ToString",
      "outputs": [
        {
          "name": "",
          "type": "string"
        }
      ],
      "payable": false,
      "stateMutability": "view",
      "type": "function"
    },
    {
      "constant": true,
      "inputs": [
        {
          "name": "number",
          "type": "uint256"
        }
      ],
      "name": "uintToAscii",
      "outputs": [
        {
          "name": "",
          "type": "bytes1"
        }
      ],
      "payable": false,
      "stateMutability": "view",
      "type": "function"
    },
    {
      "constant": true,
      "inputs": [
        {
          "name": "_message",
          "type": "bytes32"
        },
        {
          "name": "_v",
          "type": "uint8"
        },
        {
          "name": "_r",
          "type": "bytes32"
        },
        {
          "name": "_s",
          "type": "bytes32"
        }
      ],
      "name": "verify",
      "outputs": [
        {
          "name": "",
          "type": "address"
        }
      ],
      "payable": false,
      "stateMutability": "view",
      "type": "function"
    },
    {
      "constant": false,
      "inputs": [
        {
          "name": "_parameter",
          "type": "bytes32[]"
        }
      ],
      "name": "attach",
      "outputs": [],
      "payable": false,
      "stateMutability": "nonpayable",
      "type": "function"
    },
    {
      "constant": false,
      "inputs": [
        {
          "name": "_parameter",
          "type": "bytes32[]"
        }
      ],
      "name": "proposeDeposit",
      "outputs": [],
      "payable": true,
      "stateMutability": "payable",
      "type": "function"
    },
    {
      "constant": false,
      "inputs": [
        {
          "name": "_parameter",
          "type": "bytes32[]"
        }
      ],
      "name": "deposit",
      "outputs": [],
      "payable": false,
      "stateMutability": "nonpayable",
      "type": "function"
    },
    {
      "constant": false,
      "inputs": [
        {
          "name": "_parameter",
          "type": "bytes32[]"
        }
      ],
      "name": "proposeWithdrawal",
      "outputs": [],
      "payable": false,
      "stateMutability": "nonpayable",
      "type": "function"
    },
    {
      "constant": false,
      "inputs": [
        {
          "name": "_parameter",
          "type": "bytes32[]"
        }
      ],
      "name": "withdraw",
      "outputs": [],
      "payable": false,
      "stateMutability": "nonpayable",
      "type": "function"
    },
    {
      "constant": false,
      "inputs": [
        {
          "name": "_parameter",
          "type": "bytes32[]"
        }
      ],
      "name": "instantWithdraw",
      "outputs": [],
      "payable": false,
      "stateMutability": "nonpayable",
      "type": "function"
    }
  ],
  "bytecode": "0x608060405234801561001057600080fd5b5061291f806100206000396000f3006080604052600436106101025763ffffffff60e060020a600035041662f817d68114610107578063098bbb6214610147578063422335471461017c5780634a7c7e46146101e357806368ff1929146102305780636cdcf150146102875780637b9d7d741461029f578063845ddcb2146102f45780638da5cb5b1461032a57806390c8a3a11461035b5780639201de551461037057806395aa4aac146103fd578063a87a8c1714610452578063be1946da146104ac578063cc6e7a1414610501578063dcf12aba14610516578063f1835db71461055e578063f418eae414610582578063f661bec514610597578063fe2b3924146105f1578063ff74927b14610646575b600080fd5b34801561011357600080fd5b5061011f6004356106dd565b6040805194855260208501939093528383019190915215156060830152519081900360800190f35b34801561015357600080fd5b50610168600160a060020a0360043516610708565b604080519115158252519081900360200190f35b34801561018857600080fd5b50604080516020600480358082013583810280860185019096528085526101d19536959394602494938501929182918501908490808284375094975061071d9650505050505050565b60408051918252519081900360200190f35b3480156101ef57600080fd5b506101fb6004356107eb565b604080517fff000000000000000000000000000000000000000000000000000000000000009092168252519081900360200190f35b34801561023c57600080fd5b5060408051602060048035808201358381028086018501909652808552610285953695939460249493850192918291850190849080828437509497506108209650505050505050565b005b34801561029357600080fd5b5061011f60043561109a565b3480156102ab57600080fd5b5060408051602060048035808201358381028086018501909652808552610285953695939460249493850192918291850190849080828437509497506110c69650505050505050565b34801561030057600080fd5b5061030c6004356117eb565b60408051938452602084019290925282820152519081900360600190f35b34801561033657600080fd5b5061033f61180c565b60408051600160a060020a039092168252519081900360200190f35b34801561036757600080fd5b506101d161181b565b34801561037c57600080fd5b50610388600435611821565b6040805160208082528351818301528351919283929083019185019080838360005b838110156103c25781810151838201526020016103aa565b50505050905090810190601f1680156103ef5780820380516001836020036101000a031916815260200191505b509250505060405180910390f35b34801561040957600080fd5b5060408051602060048035808201358381028086018501909652808552610285953695939460249493850192918291850190849080828437509497506118ee9650505050505050565b34801561045e57600080fd5b506040805160206004602480358281013584810280870186019097528086526101d1968435963696604495919490910192918291850190849080828437509497506119f99650505050505050565b3480156104b857600080fd5b506040805160206004803580820135838102808601850190965280855261028595369593946024949385019291829185019084908082843750949750611b009650505050505050565b34801561050d57600080fd5b506101d16122ff565b60408051602060048035808201358381028086018501909652808552610285953695939460249493850192918291850190849080828437509497506123059650505050505050565b34801561056a57600080fd5b5061033f60043560ff602435166044356064356123ef565b34801561058e57600080fd5b506101d16124f0565b3480156105a357600080fd5b50604080516020600460248035828101358481028087018601909752808652610168968435963696604495919490910192918291850190849080828437509497506124f69650505050505050565b3480156105fd57600080fd5b50604080516020600480358082013583810280860185019096528085526102859536959394602494938501929182918501908490808284375094975061253f9650505050505050565b34801561065257600080fd5b506040805160206004803580820135601f810184900484028501840190955284845261038894369492936024939284019190819084018382808284375050604080516020601f89358b018035918201839004830284018301909452808352979a9998810197919650918201945092508291508401838280828437509497506127d49650505050505050565b6001602081905260009182526040909120805491810154600282015460039092015490919060ff1684565b60036020526000908152604090205460ff1681565b60006060600080845111151561073257600080fd5b61075384600081518110151561074457fe5b90602001906020020151611821565b9150600190505b83518110156107875761077d82610778868481518110151561074457fe5b6127d4565b915060010161075a565b816040518082805190602001908083835b602083106107b75780518252601f199092019160209182019101610798565b5181516020939093036101000a60001901801990911692169190911790526040519201829003909120979650505050505050565b6000600a821015610806575060f860020a603082010261081b565b6010821015610102575060f860020a60578201025b919050565b606060008260606000806008604051908082528060200260200182016040528015610855578160200160208202803883390190505b50925083600181518110151561086757fe5b9060200190602002015183600081518110151561088057fe5b6020908102909101015283518490600290811061089957fe5b906020019060200201518360018151811015156108b257fe5b602090810290910101528351849060039081106108cb57fe5b906020019060200201518360028151811015156108e457fe5b602090810290910101528351849060049081106108fd57fe5b9060200190602002015183600381518110151561091657fe5b6020908102909101015283518490600590811061092f57fe5b9060200190602002015183600481518110151561094857fe5b6020908102909101015283518490600690811061096157fe5b9060200190602002015183600581518110151561097a57fe5b6020908102909101015283518490600790811061099357fe5b906020019060200201518360068151811015156109ac57fe5b602090810290910101528351849060089081106109c557fe5b906020019060200201518360078151811015156109de57fe5b602090810290910101526109f18361071d565b9150836000815181101515610a0257fe5b602090810290910101518214610a1757600080fd5b610a6b82856009815181101515610a2a57fe5b6020908102909101015186518790600a908110610a4357fe5b9060200190602002015187600b815181101515610a5c57fe5b906020019060200201516123ef565b9050836001815181101515610a7c57fe5b60209081029091010151600160a060020a0316158015610abc5750836002815181101515610aa657fe5b60209081029091010151600160a060020a031615155b15610b9057836002815181101515610ad057fe5b60209081029091010151600160a060020a03828116911614610af157600080fd5b60016000856007815181101515610b0457fe5b6020908102909101810151825281019190915260400160002060010154600160a060020a03828116911614610b3857600080fd5b60016000856007815181101515610b4b57fe5b6020908102909101810151825281019190915260400160002060020154845185906004908110610b7757fe5b6020908102909101015114610b8b57600080fd5b610c14565b836001815181101515610b9f57fe5b60209081029091010151600160a060020a031615801590610bdf5750836002815181101515610bca57fe5b60209081029091010151600160a060020a0316155b1561010257836001815181101515610bf357fe5b60209081029091010151600160a060020a03828116911614610b8b57600080fd5b60408051600580825260c08201909252906020820160a08038833950506004548251929550600101918591506000908110610c4b57fe5b6020908102909101015283518490600c908110610c6457fe5b90602001906020020151836001815181101515610c7d57fe5b60209081029091010152835184906000908110610c9657fe5b90602001906020020151836002815181101515610caf57fe5b6020908102909101015283518490600d908110610cc857fe5b90602001906020020151836003815181101515610ce157fe5b6020908102909101015283518490600e908110610cfa57fe5b90602001906020020151836004815181101515610d1357fe5b60209081029091010152610d268361071d565b9150610d6d82856012815181101515610d3b57fe5b60209081029091010151865187906013908110610d5457fe5b90602001906020020151876014815181101515610a5c57fe5b600754909150600160a060020a03808316911614610d8a57600080fd5b6040805160028082526060820183529091602083019080388339019050509550866001815181101515610db957fe5b90602001906020020151866000815181101515610dd257fe5b60209081029091010152865187906006908110610deb57fe5b90602001906020020151866001815181101515610e0457fe5b60209081029091010152610e178661071d565b600454600082815260026020526040902060019182019055885191965088918110610e3e57fe5b602090810290910181015160008781526002909252604090912060010155865187906005908110610e6b57fe5b60209081029091010151875188906004908110610e8457fe5b602090810290910181015160008881526002928390526040902092900391015586516001907f6768e9219651a40c194e7dadba7540b112aa9f5495ed9224d694a2ba71ef9742908990600c908110610ed857fe5b90602001906020020151896000815181101515610ef157fe5b906020019060200201518a600d815181101515610f0a57fe5b906020019060200201518b600e815181101515610f2357fe5b906020019060200201516060604051908101604052808e600f815181101515610f4857fe5b602090810290910181015182528f519101908f906010908110610f6757fe5b602090810290910181015182528f519101908f906011908110610f8657fe5b9060200190602002015160001916600019168152506060604051908101604052808f6012815181101515610fb657fe5b90602001906020020151600019166000191681526020018f6013815181101515610fdc57fe5b90602001906020020151600019166000191681526020018f601481518110151561100257fe5b602090810290910181015190915260408051888152918201879052810185905260608082018590526080820190849080838360005b8381101561104f578181015183820152602001611037565b5050505090500182600360200280838360005b8381101561107a578181015183820152602001611062565b50505050905001965050505050505060405180910390a250505050505050565b600260208190526000918252604090912080546001820154928201546003909201549092919060ff1684565b60408051600880825261012082019092528291606091600091829190602082016101008038833901905050925083600181518110151561110257fe5b9060200190602002015183600081518110151561111b57fe5b6020908102909101015283518490600290811061113457fe5b9060200190602002015183600181518110151561114d57fe5b6020908102909101015283518490600390811061116657fe5b9060200190602002015183600281518110151561117f57fe5b6020908102909101015283518490600490811061119857fe5b906020019060200201518360038151811015156111b157fe5b602090810290910101528351849060059081106111ca57fe5b906020019060200201518360048151811015156111e357fe5b602090810290910101528351849060069081106111fc57fe5b9060200190602002015183600581518110151561121557fe5b6020908102909101015283518490600790811061122e57fe5b9060200190602002015183600681518110151561124757fe5b6020908102909101015283518490600890811061126057fe5b9060200190602002015183600781518110151561127957fe5b6020908102909101015261128c8361071d565b915083600081518110151561129d57fe5b6020908102909101015182146112b257600080fd5b6112c582856009815181101515610a2a57fe5b90508360018151811015156112d657fe5b60209081029091010151600160a060020a0316158015611316575083600281518110151561130057fe5b60209081029091010151600160a060020a031615155b156113ea5783600281518110151561132a57fe5b60209081029091010151600160a060020a0382811691161461134b57600080fd5b6001600085600781518110151561135e57fe5b6020908102909101810151825281019190915260400160002060010154600160a060020a0382811691161461139257600080fd5b600160008560078151811015156113a557fe5b60209081029091018101518252810191909152604001600020600201548451859060049081106113d157fe5b60209081029091010151146113e557600080fd5b61146e565b8360018151811015156113f957fe5b60209081029091010151600160a060020a031615801590611439575083600281518110151561142457fe5b60209081029091010151600160a060020a0316155b156101025783600181518110151561144d57fe5b60209081029091010151600160a060020a038281169116146113e557600080fd5b60408051600580825260c08201909252906020820160a080388339505060045482519295506001019185915060009081106114a557fe5b6020908102909101015283518490600c9081106114be57fe5b906020019060200201518360018151811015156114d757fe5b602090810290910101528351849060009081106114f057fe5b9060200190602002015183600281518110151561150957fe5b6020908102909101015283518490600d90811061152257fe5b9060200190602002015183600381518110151561153b57fe5b6020908102909101015283518490600e90811061155457fe5b9060200190602002015183600481518110151561156d57fe5b602090810290910101526115808361071d565b915061159582856012815181101515610d3b57fe5b600754909150600160a060020a038083169116146115b257600080fd5b60075433600160a060020a039081169116146115cd57600080fd5b60018060008760078151811015156115e157fe5b60209081029190910181015182528101919091526040016000908120600301805460ff19169215159290921790915585517f6768e9219651a40c194e7dadba7540b112aa9f5495ed9224d694a2ba71ef9742908790600c90811061164157fe5b9060200190602002015187600081518110151561165a57fe5b9060200190602002015188600d81518110151561167357fe5b9060200190602002015189600e81518110151561168c57fe5b906020019060200201516060604051908101604052808c600f8151811015156116b157fe5b602090810290910181015182528d519101908d9060109081106116d057fe5b602090810290910181015182528d519101908d9060119081106116ef57fe5b60209081029091010151905260408051606081019091528c5181908e90601290811061171757fe5b602090810290910181015182528e519101908e90601390811061173657fe5b602090810290910181015182528e519101908e90601490811061175557fe5b602090810290910181015190915260408051888152918201879052810185905260608082018590526080820190849080838360005b838110156117a257818101518382015260200161178a565b5050505090500182600360200280838360005b838110156117cd5781810151838201526020016117b5565b50505050905001965050505050505060405180910390a25050505050565b60006020819052908152604090208054600182015460029092015490919083565b600754600160a060020a031681565b60055481565b60408051818152606080820183529182916000918291906020820161080080388339019050509250600091505b60208210156118e557506008810260020a8402611873601060f860020a8304046107eb565b835184906002850290811061188457fe5b906020010190600160f860020a031916908160001a9053506118ae601060f860020a8304066107eb565b83836002026001018151811015156118c257fe5b906020010190600160f860020a031916908160001a90535060019091019061184e565b50909392505050565b60048054600101905580518190600090811061190657fe5b602090810290910181015160045460009081529182905260409091205580518190600190811061193257fe5b602090810290910181015160045460009081529182905260409091206001015580518190600290811061196157fe5b60209081029091018101516004805460009081529283905260408320600201919091555482517fea3f2b7078db2e6bbf7c7e2ab4a864450c60236f314da2f4340fc53f70f9297692849181106119b357fe5b906020019060200201518360018151811015156119cc57fe5b6020908102909101810151604080519485529184019290925282810191909152519081900360600190a150565b60008060606000808551111515611a0f57600080fd5b846000815181101515611a1e57fe5b906020019060200201519250600190505b8451811015611af657611a4183611821565b9150600286061515611a6957611a6282610778878481518110151561074457fe5b9150611a86565b611a83611a7d868381518110151561074457fe5b836127d4565b91505b816040518082805190602001908083835b60208310611ab65780518252601f199092019160209182019101611a97565b5181516020939093036101000a60001901801990911692169190911790526040519201829003909120600290990498955050506001919091019050611a2f565b5090949350505050565b606060008260606000806008604051908082528060200260200182016040528015611b35578160200160208202803883390190505b509250836001815181101515611b4757fe5b90602001906020020151836000815181101515611b6057fe5b60209081029091010152835184906002908110611b7957fe5b90602001906020020151836001815181101515611b9257fe5b60209081029091010152835184906003908110611bab57fe5b90602001906020020151836002815181101515611bc457fe5b60209081029091010152835184906004908110611bdd57fe5b90602001906020020151836003815181101515611bf657fe5b60209081029091010152835184906005908110611c0f57fe5b90602001906020020151836004815181101515611c2857fe5b60209081029091010152835184906006908110611c4157fe5b90602001906020020151836005815181101515611c5a57fe5b60209081029091010152835184906007908110611c7357fe5b90602001906020020151836006815181101515611c8c57fe5b60209081029091010152835184906008908110611ca557fe5b90602001906020020151836007815181101515611cbe57fe5b60209081029091010152611cd18361071d565b9150836000815181101515611ce257fe5b602090810290910101518214611cf757600080fd5b611d0a82856009815181101515610a2a57fe5b9050836001815181101515611d1b57fe5b60209081029091010151600160a060020a0316158015611d5b5750836002815181101515611d4557fe5b60209081029091010151600160a060020a031615155b15611e2f57836002815181101515611d6f57fe5b60209081029091010151600160a060020a03828116911614611d9057600080fd5b60016000856007815181101515611da357fe5b6020908102909101810151825281019190915260400160002060010154600160a060020a03828116911614611dd757600080fd5b60016000856007815181101515611dea57fe5b6020908102909101810151825281019190915260400160002060020154845185906004908110611e1657fe5b6020908102909101015114611e2a57600080fd5b611eb3565b836001815181101515611e3e57fe5b60209081029091010151600160a060020a031615801590611e7e5750836002815181101515611e6957fe5b60209081029091010151600160a060020a0316155b1561010257836001815181101515611e9257fe5b60209081029091010151600160a060020a03828116911614611e2a57600080fd5b60408051600580825260c08201909252906020820160a08038833950506004548251929550600101918591506000908110611eea57fe5b6020908102909101015283518490600c908110611f0357fe5b90602001906020020151836001815181101515611f1c57fe5b60209081029091010152835184906000908110611f3557fe5b90602001906020020151836002815181101515611f4e57fe5b6020908102909101015283518490600d908110611f6757fe5b90602001906020020151836003815181101515611f8057fe5b6020908102909101015283518490600e908110611f9957fe5b90602001906020020151836004815181101515611fb257fe5b60209081029091010152611fc58361071d565b9150611fda82856012815181101515610d3b57fe5b600754909150600160a060020a03808316911614611ff757600080fd5b60055487600481518110151561200957fe5b60209081029091010151111561201e57600080fd5b604080516002808252606082018352909160208301908038833901905050955086600181518110151561204d57fe5b9060200190602002015186600081518110151561206657fe5b6020908102909101015286518790600690811061207f57fe5b9060200190602002015186600181518110151561209857fe5b602090810290910101526120ab8661071d565b60008181526002602052604090206003015490955060ff16156120cd57600080fd5b600454600086815260026020526040902060019182019055875188919081106120f257fe5b60209081029091018101516000878152600290925260409091206001015586518790600490811061211f57fe5b6020908102909101810151600087815260029283905260408120928301919091556003918201805460ff19166001179055885189908390811061215e57fe5b6020908102909101810151600160a060020a031682528101919091526040016000205460ff16156122615786600381518110151561219857fe5b9060200190602002015160019004600160a060020a031663a9059cbb8860028151811015156121c357fe5b6020908102909101015189518a9060049081106121dc57fe5b60209081029091018101516040805160e060020a63ffffffff8716028152600160a060020a0390941660048501526024840191909152516044808401938290030181600087803b15801561222f57600080fd5b505af1158015612243573d6000803e3d6000fd5b505050506040513d602081101561225957600080fd5b506122cd9050565b86600181518110151561227057fe5b9060200190602002015160019004600160a060020a03166108fc88600481518110151561229957fe5b602090810290910101516040518115909202916000818181858888f193505050501580156122cb573d6000803e3d6000fd5b505b60027f6768e9219651a40c194e7dadba7540b112aa9f5495ed9224d694a2ba71ef974288600c815181101515610ed857fe5b60065481565b6006546004546000828152600160208190526040822092019091558251839190811061232d57fe5b60209081029091018101516000838152600192839052604090208201558251839190811061235757fe5b60209081029091018101516000838152600192839052604081206002019190915560068054909201909155825182917f913dac1707e441befc53d93550609b9848366e115ea3b348ce0d352ae59b271e9185919081106123b357fe5b906020019060200201518460018151811015156123cc57fe5b602090810290910181015160408051938452918301528051918290030190a25050565b604080518082018252601c8082527f19457468657265756d205369676e6564204d6573736167653a0a3332000000006020830190815292516000938492839285928b928291908083835b602083106124585780518252601f199092019160209182019101612439565b51815160209384036101000a6000190180199092169116179052920193845250604080519384900382018420600080865285840180845282905260ff8e1686840152606086018d9052608086018c905291519097506001955060a080860195939450601f198201938290030191865af11580156124d9573d6000803e3d6000fd5b5050604051601f1901519998505050505050505050565b60045481565b6000805b825181101561253357828181518110151561251157fe5b6020908102909101015184141561252b5760019150612538565b6001016124fa565b600091505b5092915050565b60008060006002600085600081518110151561255757fe5b602090810290910181015182528101919091526040016000206003015460ff161561258157600080fd5b6004546002600086600081518110151561259757fe5b6020908102909101810151825281019190915260400160002054106125bb57600080fd5b600260008560008151811015156125ce57fe5b6020908102909101810151825281019190915260400160009081206001015485519094506002919086908290811061260257fe5b602090810290910181015182528101919091526040016000206002015484519092508490600390811061263157fe5b6020908102909101810151600160a060020a0381166000908152600390925260409091205490915060ff16156126f65780600160a060020a031663a9059cbb84846040518363ffffffff1660e060020a0281526004018083600160a060020a0316600160a060020a0316815260200182815260200192505050602060405180830381600087803b1580156126c457600080fd5b505af11580156126d8573d6000803e3d6000fd5b505050506040513d60208110156126ee57600080fd5b5061276f9050565b604051600160a060020a0384169083156108fc029084906000818181858888f1935050505015801561272c573d6000803e3d6000fd5b5060016002600086600081518110151561274257fe5b6020908102919091018101518252810191909152604001600020600301805460ff19169115159190911790555b83600081518110151561277e57fe5b602090810290910181015160408051600160a060020a0387168152928301859052805191927f80a40f1c0f5b1e6713e99526ec5194e44c9093e8aa012fb3673a24119edc795b929081900390910190a250505050565b606080606080606060008088955087945084518651016040519080825280601f01601f191660200182016040528015612817578160200160208202803883390190505b50935083925060009150600090505b855181101561288457858181518110151561283d57fe5b90602001015160f860020a900460f860020a02838380600101945081518110151561286457fe5b906020010190600160f860020a031916908160001a905350600101612826565b5060005b84518110156128e657848181518110151561289f57fe5b90602001015160f860020a900460f860020a0283838060010194508151811015156128c657fe5b906020010190600160f860020a031916908160001a905350600101612888565b50909796505050505050505600a165627a7a723058206b34bbe830fddd1a890d76112602e5a7cf734fc24ed27ed8991f0249180a752e0029",
  "source": "pragma solidity ^0.4.23;\n\ncontract Token {\n    function transfer(address _to, uint256 _value) public returns (bool success);\n}\n\ncontract SidechainLib {\n    mapping (uint256 => SidechainLib.Stage) public stages;\n    mapping (bytes32 => SidechainLib.Log) public depositLogs;\n    mapping (bytes32 => SidechainLib.Log) public withdrawalLogs;\n    mapping (address => bool) public assetAddresses;\n    uint256 public stageHeight;\n    uint256 public instantWithdrawMaximum;\n    uint256 public depositSequenceNumber;\n    address public owner;\n\n    string constant version = \"v1.3.0\";\n\n\tstruct Stage {\n\t\tbytes32 receiptRootHash;\n\t\tbytes32 accountRootHash;\n\t\tbytes32 data;\n\t}\n\n    struct Log {\n        bytes32 stage;\n        bytes32 client;\n        bytes32 value;\n        bool flag;\n    }\n\n    event ProposeDeposit (\n        bytes32 indexed _dsn,\n        bytes32 _client,\n        bytes32 _value\n    );\n\n    event VerifyReceipt (\n        uint256 indexed _type, // { 0: deposit, 1: proposeWithdrawal, 2: instantWithdrawal}\n        bytes32 _gsn,\n        bytes32 _lightTxHash,\n        bytes32 _fromBalance,\n        bytes32 _toBalance,\n        bytes32[3] _sigLightTx,\n        bytes32[3] _sigReceipt\n    );\n\n    event Attach (\n        bytes32 _stageHeight,\n        bytes32 _receiptRootHash,\n        bytes32 _accountRootHash\n    );\n\n    event Withdraw (\n        bytes32 indexed _wsn,\n        bytes32 _client,\n        bytes32 _value\n    );\n\n    modifier onlyOwner {\n        require(msg.sender == owner);\n        _;\n    }\n\n    modifier isSigValid (bytes32[] _parameter) {\n        /*\n        _parameter[0] = _lightTxHash\n\n        ===lightTxData===\n        _parameter[1] = _from\n        _parameter[2] = _to\n        _parameter[3] = _assetID\n        _parameter[4] = _value\n        _parameter[5] = _fee\n        _parameter[6] = _nonce\n        _parameter[7] = _logID\n        _parameter[8] = _metadataHash\n\n        ===clientLtxSignature===\n        _parameter[9] = _vFromClient\n        _parameter[10] = _rFromClient\n        _parameter[11] = _sFromClient\n\n        ===receipt===\n        _parameter[12] = _gsn,\n        _parameter[13] = _fromBalance,\n        _parameter[14] = _toBalance,\n\n        ===serverLtxSignature===\n        _parameter[15] = _vFromServer\n        _parameter[16] = _rFromServer\n        _parameter[17] = _sFromServer\n\n        ===serverReceiptSignature===\n        _parameter[18] = _vFromServer,\n        _parameter[19] = _rFromServer,\n        _parameter[20] = _sFromServer,\n\n        */\n        bytes32[] memory bytes32Array = new bytes32[](8);\n        bytes32Array[0] = _parameter[1]; // from\n        bytes32Array[1] = _parameter[2]; // to\n        bytes32Array[2] = _parameter[3]; // assetID\n        bytes32Array[3] = _parameter[4]; // value\n        bytes32Array[4] = _parameter[5]; // fee\n        bytes32Array[5] = _parameter[6]; // nonce\n        bytes32Array[6] = _parameter[7]; // logID\n        bytes32Array[7] = _parameter[8]; // metadataHash\n        bytes32 hashMsg = hashArray(bytes32Array);\n        require(hashMsg == _parameter[0]);\n        address signer = verify(hashMsg, uint8(_parameter[9]), _parameter[10], _parameter[11]);\n        if (address(0) == address(_parameter[1]) && address(0) != address(_parameter[2])) {\n            // Deposit\n            require(signer == address(_parameter[2]));\n            require(signer == address(depositLogs[_parameter[7]].client));\n            require(_parameter[4] == depositLogs[_parameter[7]].value);\n        } else if (address(0) != address(_parameter[1]) && address(0) == address(_parameter[2])) {\n            // Withdraw\n            require(signer == address(_parameter[1]));\n        } else {\n            revert();\n        }\n\n        bytes32Array = new bytes32[](5);\n        bytes32Array[0] = bytes32(stageHeight+1); // stageHeight\n        bytes32Array[1] = _parameter[12];         // gsn\n        bytes32Array[2] = _parameter[0];          // lightTxHash\n        bytes32Array[3] = _parameter[13];         // fromBalance\n        bytes32Array[4] = _parameter[14];         // toBalance\n        hashMsg = hashArray(bytes32Array);\n        signer = verify(hashMsg, uint8(_parameter[18]), _parameter[19], _parameter[20]);\n        require (signer == owner);\n        _;\n    }\n\n    function inBytes32Array (bytes32 data, bytes32[] dataArray) constant returns (bool){\n        for (uint i = 0; i < dataArray.length; i++) {\n            if (data == dataArray[i]) {\n                return true;\n            }\n        }\n        return false;\n    }\n\n    function hashArray (bytes32[] dataArray) constant returns (bytes32) {\n        require(dataArray.length > 0);\n        string memory str = bytes32ToString(dataArray[0]);\n        for (uint i = 1; i < dataArray.length; i++) {\n            str = strConcat(str, bytes32ToString(dataArray[i]));\n        }\n        return sha3(str);\n    }\n\n    function calculateSliceRootHash (uint idx, bytes32[] slice) constant returns (bytes32) {\n        require(slice.length > 0);\n        bytes32 rootHash = slice[0];\n        string memory str;\n        for (uint i = 1; i < slice.length; i++) {\n            str = bytes32ToString(rootHash);\n            if (idx % 2 == 0) {\n                str = strConcat(str, bytes32ToString(slice[i]));\n            } else {\n                str = strConcat(bytes32ToString(slice[i]), str);\n            }\n            rootHash = sha3(str);\n            idx = idx >> 1;\n        }\n        return rootHash;\n    }\n\n    function strConcat (string _a, string _b) constant returns (string) {\n        bytes memory bytes_a = bytes(_a);\n        bytes memory bytes_b = bytes(_b);\n        string memory length_ab = new string(bytes_a.length + bytes_b.length);\n        bytes memory bytes_c = bytes(length_ab);\n        uint k = 0;\n        for (uint i = 0; i < bytes_a.length; i++) {bytes_c[k++] = bytes_a[i];}\n        for (i = 0; i < bytes_b.length; i++) {bytes_c[k++] = bytes_b[i];}\n        return string(bytes_c);\n    }\n\n    function bytes32ToString (bytes32 b32) constant returns (string) {\n        bytes memory bytesString = new bytes(64);\n        for (uint i = 0; i < 32; i++) {\n            byte char = byte(bytes32(uint(b32) * 2 ** (8 * i)));\n            bytesString[i*2+0] = uintToAscii(uint(char) / 16);\n            bytesString[i*2+1] = uintToAscii(uint(char) % 16);\n        }\n        return string(bytesString);\n    }\n\n    function uintToAscii (uint number) constant returns(byte) {\n        if (number < 10) {\n            return byte(48 + number);\n        } else if (number < 16) {\n            // asciicode a = 97 return 10\n            return byte(87 + number);\n        } else {\n            revert();\n        }\n    }\n\n    function verify (bytes32 _message, uint8 _v, bytes32 _r, bytes32 _s) constant returns (address) {\n        bytes memory prefix = \"\\x19Ethereum Signed Message:\\n32\";\n        bytes32 prefixedHash = sha3(prefix, _message);\n        address signer = ecrecover(prefixedHash, _v, _r, _s);\n        return signer;\n    }\n\n    function attach (bytes32[] _parameter) {\n        /*\n        _parameter[0] = _receiptRootHash\n        _parameter[1] = _accountRootHash\n        _parameter[2] = _data\n        */\n        stageHeight++;\n        stages[stageHeight].receiptRootHash = _parameter[0];\n        stages[stageHeight].accountRootHash = _parameter[1];\n        stages[stageHeight].data = _parameter[2];\n        emit Attach (bytes32(stageHeight), _parameter[0], _parameter[1]);\n    }\n\n    function proposeDeposit (bytes32[] _parameter) payable {\n        /*\n        _parameter[0] = client\n        _parameter[1] = value\n        */\n        bytes32 dsn = bytes32(depositSequenceNumber);\n        depositLogs[dsn].stage = bytes32(stageHeight + 1);\n        depositLogs[dsn].client = _parameter[0];\n        depositLogs[dsn].value = _parameter[1];\n        depositSequenceNumber++;\n\n        emit ProposeDeposit (dsn, _parameter[0], _parameter[1]);\n    }\n\n    function deposit (bytes32[] _parameter) isSigValid (_parameter) public onlyOwner {\n        depositLogs[_parameter[7]].flag = true;\n\n        emit VerifyReceipt ( 0,\n                             _parameter[12],\n                             _parameter[0],\n                             _parameter[13],\n                             _parameter[14],\n                             [ _parameter[15],\n                               _parameter[16],\n                               _parameter[17]],\n                             [ _parameter[18],\n                               _parameter[19],\n                               _parameter[20]]);\n    }\n\n    function proposeWithdrawal (bytes32[] _parameter) isSigValid (_parameter) public {\n        /*\n        wsn = concat(from + nonce)\n        */\n        bytes32[] memory bytes32Array = new bytes32[](2);\n        bytes32Array[0] = _parameter[1]; // from\n        bytes32Array[1] = _parameter[6]; // nonce\n        bytes32 wsn = hashArray(bytes32Array);\n\n        withdrawalLogs[wsn].stage = bytes32(stageHeight+1);\n        withdrawalLogs[wsn].client = _parameter[1];\n        withdrawalLogs[wsn].value = bytes32(uint256(_parameter[4]) - uint256(_parameter[5])); // value - fee\n\n        emit VerifyReceipt ( 1,\n                             _parameter[12],\n                             _parameter[0],\n                             _parameter[13],\n                             _parameter[14],\n                             [ _parameter[15],\n                               _parameter[16],\n                               _parameter[17]],\n                             [ _parameter[18],\n                               _parameter[19],\n                               _parameter[20]]);\n    }\n\n    function withdraw (bytes32[] _parameter) public {\n        /*\n        _parameter[0] = _wsn\n        */\n        // flag = false\n        require(!withdrawalLogs[_parameter[0]].flag);\n        // over challenge time\n        require (uint256(withdrawalLogs[_parameter[0]].stage) < stageHeight);\n        address client = address(withdrawalLogs[_parameter[0]].client);\n        uint256 value = uint256(withdrawalLogs[_parameter[0]].value);\n        address assetAddress = address(_parameter[3]);\n        if (assetAddresses[assetAddress] != false) {\n            Token(assetAddress).transfer(client, value);\n        } else {\n            client.transfer(value);\n            withdrawalLogs[_parameter[0]].flag = true;\n        }\n        emit Withdraw (_parameter[0], bytes32(client), bytes32(value));\n    }\n\n    function instantWithdraw (bytes32[] _parameter) isSigValid (_parameter) public {\n        // instantWithdraw condition\n        require (uint256(_parameter[4]) <= instantWithdrawMaximum);\n        /*\n        wsn = concat(from + nonce)\n        */\n        bytes32[] memory bytes32Array = new bytes32[](2);\n        bytes32Array[0] = _parameter[1]; // from\n        bytes32Array[1] = _parameter[6]; // nonce\n        bytes32 wsn = hashArray(bytes32Array);\n\n        require(withdrawalLogs[wsn].flag == false);\n        withdrawalLogs[wsn].stage = bytes32(stageHeight+1);\n        withdrawalLogs[wsn].client = _parameter[1];\n        withdrawalLogs[wsn].value = _parameter[4];\n        withdrawalLogs[wsn].flag = true;\n\n        if (assetAddresses[address(_parameter[3])] != false) {\n            Token(address(_parameter[3])).transfer(address(_parameter[2]), uint256(_parameter[4]));\n        } else {\n            address(_parameter[1]).transfer(uint256(_parameter[4]));\n        }\n\n        emit VerifyReceipt ( 2,\n                             _parameter[12],\n                             _parameter[0],\n                             _parameter[13],\n                             _parameter[14],\n                             [ _parameter[15],\n                               _parameter[16],\n                               _parameter[17]],\n                             [ _parameter[18],\n                               _parameter[19],\n                               _parameter[20]]);\n    }\n}\n",
  "sourcePath": "/Users/louis.lee/git/infinitechain_contract/gringotts/contracts/SidechainLib.sol",
  "compiler": {
    "name": "solc",
    "version": "0.4.23+commit.124ca40d.Emscripten.clang"
  },
  "schemaVersion": "2.0.0",
  "updatedAt": "2018-07-10T06:21:21.500Z"
}